{
  "_format": "hh-sol-artifact-1",
  "contractName": "MyEpicNFT",
  "sourceName": "contracts/MyEpicNFT.sol",
  "abi": [
    {
      "inputs": [],
      "stateMutability": "nonpayable",
      "type": "constructor"
    },
    {
      "anonymous": false,
      "inputs": [
        {
          "indexed": true,
          "internalType": "address",
          "name": "owner",
          "type": "address"
        },
        {
          "indexed": true,
          "internalType": "address",
          "name": "approved",
          "type": "address"
        },
        {
          "indexed": true,
          "internalType": "uint256",
          "name": "tokenId",
          "type": "uint256"
        }
      ],
      "name": "Approval",
      "type": "event"
    },
    {
      "anonymous": false,
      "inputs": [
        {
          "indexed": true,
          "internalType": "address",
          "name": "owner",
          "type": "address"
        },
        {
          "indexed": true,
          "internalType": "address",
          "name": "operator",
          "type": "address"
        },
        {
          "indexed": false,
          "internalType": "bool",
          "name": "approved",
          "type": "bool"
        }
      ],
      "name": "ApprovalForAll",
      "type": "event"
    },
    {
      "anonymous": false,
      "inputs": [
        {
          "indexed": false,
          "internalType": "address",
          "name": "sender",
          "type": "address"
        },
        {
          "indexed": false,
          "internalType": "uint256",
          "name": "tokenId",
          "type": "uint256"
        },
        {
          "indexed": false,
          "internalType": "uint256",
          "name": "nftCount",
          "type": "uint256"
        }
      ],
      "name": "NewEpicNFTMinted",
      "type": "event"
    },
    {
      "anonymous": false,
      "inputs": [
        {
          "indexed": true,
          "internalType": "address",
          "name": "from",
          "type": "address"
        },
        {
          "indexed": true,
          "internalType": "address",
          "name": "to",
          "type": "address"
        },
        {
          "indexed": true,
          "internalType": "uint256",
          "name": "tokenId",
          "type": "uint256"
        }
      ],
      "name": "Transfer",
      "type": "event"
    },
    {
      "inputs": [
        {
          "internalType": "address",
          "name": "to",
          "type": "address"
        },
        {
          "internalType": "uint256",
          "name": "tokenId",
          "type": "uint256"
        }
      ],
      "name": "approve",
      "outputs": [],
      "stateMutability": "nonpayable",
      "type": "function"
    },
    {
      "inputs": [
        {
          "internalType": "address",
          "name": "owner",
          "type": "address"
        }
      ],
      "name": "balanceOf",
      "outputs": [
        {
          "internalType": "uint256",
          "name": "",
          "type": "uint256"
        }
      ],
      "stateMutability": "view",
      "type": "function"
    },
    {
      "inputs": [
        {
          "internalType": "uint256",
          "name": "tokenId",
          "type": "uint256"
        }
      ],
      "name": "getApproved",
      "outputs": [
        {
          "internalType": "address",
          "name": "",
          "type": "address"
        }
      ],
      "stateMutability": "view",
      "type": "function"
    },
    {
      "inputs": [
        {
          "internalType": "address",
          "name": "owner",
          "type": "address"
        },
        {
          "internalType": "address",
          "name": "operator",
          "type": "address"
        }
      ],
      "name": "isApprovedForAll",
      "outputs": [
        {
          "internalType": "bool",
          "name": "",
          "type": "bool"
        }
      ],
      "stateMutability": "view",
      "type": "function"
    },
    {
      "inputs": [],
      "name": "makeAnEpicNFT",
      "outputs": [],
      "stateMutability": "nonpayable",
      "type": "function"
    },
    {
      "inputs": [],
      "name": "name",
      "outputs": [
        {
          "internalType": "string",
          "name": "",
          "type": "string"
        }
      ],
      "stateMutability": "view",
      "type": "function"
    },
    {
      "inputs": [
        {
          "internalType": "uint256",
          "name": "tokenId",
          "type": "uint256"
        }
      ],
      "name": "ownerOf",
      "outputs": [
        {
          "internalType": "address",
          "name": "",
          "type": "address"
        }
      ],
      "stateMutability": "view",
      "type": "function"
    },
    {
      "inputs": [
        {
          "internalType": "uint256",
          "name": "tokenId",
          "type": "uint256"
        }
      ],
      "name": "pickRandomAdjective",
      "outputs": [
        {
          "internalType": "string",
          "name": "",
          "type": "string"
        }
      ],
      "stateMutability": "view",
      "type": "function"
    },
    {
      "inputs": [
        {
          "internalType": "uint256",
          "name": "tokenId",
          "type": "uint256"
        }
      ],
      "name": "pickRandomBackground",
      "outputs": [
        {
          "internalType": "string",
          "name": "",
          "type": "string"
        }
      ],
      "stateMutability": "view",
      "type": "function"
    },
    {
      "inputs": [
        {
          "internalType": "uint256",
          "name": "tokenId",
          "type": "uint256"
        }
      ],
      "name": "pickRandomColor",
      "outputs": [
        {
          "internalType": "string",
          "name": "",
          "type": "string"
        }
      ],
      "stateMutability": "view",
      "type": "function"
    },
    {
      "inputs": [
        {
          "internalType": "uint256",
          "name": "tokenId",
          "type": "uint256"
        }
      ],
      "name": "pickRandomCreature",
      "outputs": [
        {
          "internalType": "string",
          "name": "",
          "type": "string"
        }
      ],
      "stateMutability": "view",
      "type": "function"
    },
    {
      "inputs": [
        {
          "internalType": "address",
          "name": "from",
          "type": "address"
        },
        {
          "internalType": "address",
          "name": "to",
          "type": "address"
        },
        {
          "internalType": "uint256",
          "name": "tokenId",
          "type": "uint256"
        }
      ],
      "name": "safeTransferFrom",
      "outputs": [],
      "stateMutability": "nonpayable",
      "type": "function"
    },
    {
      "inputs": [
        {
          "internalType": "address",
          "name": "from",
          "type": "address"
        },
        {
          "internalType": "address",
          "name": "to",
          "type": "address"
        },
        {
          "internalType": "uint256",
          "name": "tokenId",
          "type": "uint256"
        },
        {
          "internalType": "bytes",
          "name": "_data",
          "type": "bytes"
        }
      ],
      "name": "safeTransferFrom",
      "outputs": [],
      "stateMutability": "nonpayable",
      "type": "function"
    },
    {
      "inputs": [
        {
          "internalType": "address",
          "name": "operator",
          "type": "address"
        },
        {
          "internalType": "bool",
          "name": "approved",
          "type": "bool"
        }
      ],
      "name": "setApprovalForAll",
      "outputs": [],
      "stateMutability": "nonpayable",
      "type": "function"
    },
    {
      "inputs": [
        {
          "internalType": "bytes4",
          "name": "interfaceId",
          "type": "bytes4"
        }
      ],
      "name": "supportsInterface",
      "outputs": [
        {
          "internalType": "bool",
          "name": "",
          "type": "bool"
        }
      ],
      "stateMutability": "view",
      "type": "function"
    },
    {
      "inputs": [],
      "name": "symbol",
      "outputs": [
        {
          "internalType": "string",
          "name": "",
          "type": "string"
        }
      ],
      "stateMutability": "view",
      "type": "function"
    },
    {
      "inputs": [
        {
          "internalType": "uint256",
          "name": "tokenId",
          "type": "uint256"
        }
      ],
      "name": "tokenURI",
      "outputs": [
        {
          "internalType": "string",
          "name": "",
          "type": "string"
        }
      ],
      "stateMutability": "view",
      "type": "function"
    },
    {
      "inputs": [
        {
          "internalType": "address",
          "name": "from",
          "type": "address"
        },
        {
          "internalType": "address",
          "name": "to",
          "type": "address"
        },
        {
          "internalType": "uint256",
          "name": "tokenId",
          "type": "uint256"
        }
      ],
      "name": "transferFrom",
      "outputs": [],
      "stateMutability": "nonpayable",
      "type": "function"
    }
  ],
  "bytecode": "0x608060405260405180610100016040528060d3815260200162004fcf60d3913960089080519060200190620000369291906200109f565b50604051806080016040528060568152602001620050a26056913960099080519060200190620000689291906200109f565b506040518061028001604052806040518060400160405280600681526020017f4d6967687479000000000000000000000000000000000000000000000000000081525081526020016040518060400160405280600781526020017f437572696f75730000000000000000000000000000000000000000000000000081525081526020016040518060400160405280600581526020017f536361727900000000000000000000000000000000000000000000000000000081525081526020016040518060400160405280600581526020017f486170707900000000000000000000000000000000000000000000000000000081525081526020016040518060400160405280600481526020017f457069630000000000000000000000000000000000000000000000000000000081525081526020016040518060400160405280600581526020017f4769616e7400000000000000000000000000000000000000000000000000000081525081526020016040518060400160405280600581526020017f46756e6e7900000000000000000000000000000000000000000000000000000081525081526020016040518060400160405280600481526020017f54696e790000000000000000000000000000000000000000000000000000000081525081526020016040518060400160405280600581526020017f4368696c6c00000000000000000000000000000000000000000000000000000081525081526020016040518060400160405280600581526020017f517569657400000000000000000000000000000000000000000000000000000081525081526020016040518060400160405280600481526020017f4c6f75640000000000000000000000000000000000000000000000000000000081525081526020016040518060400160405280600581526020017f456c69746500000000000000000000000000000000000000000000000000000081525081526020016040518060400160405280600581526020017f537769667400000000000000000000000000000000000000000000000000000081525081526020016040518060400160405280600581526020017f576974747900000000000000000000000000000000000000000000000000000081525081526020016040518060400160405280600981526020017f4c756d626572696e67000000000000000000000000000000000000000000000081525081526020016040518060400160405280600581526020017f517569636b00000000000000000000000000000000000000000000000000000081525081526020016040518060400160405280600481526020017f576973650000000000000000000000000000000000000000000000000000000081525081526020016040518060400160405280600881526020017f466561726c65737300000000000000000000000000000000000000000000000081525081526020016040518060400160405280600581526020017f546f75676800000000000000000000000000000000000000000000000000000081525081526020016040518060400160405280600781526020017f53757072656d6500000000000000000000000000000000000000000000000000815250815250600a9060146200052192919062001130565b50604051806101e001604052806040518060400160405280600381526020017f526564000000000000000000000000000000000000000000000000000000000081525081526020016040518060400160405280600481526020017f426c75650000000000000000000000000000000000000000000000000000000081525081526020016040518060400160405280600581526020017f477265656e00000000000000000000000000000000000000000000000000000081525081526020016040518060400160405280600681526020017f507572706c65000000000000000000000000000000000000000000000000000081525081526020016040518060400160405280600681526020017f4f72616e6765000000000000000000000000000000000000000000000000000081525081526020016040518060400160405280600681526020017f59656c6c6f77000000000000000000000000000000000000000000000000000081525081526020016040518060400160405280600581526020017f426c61636b00000000000000000000000000000000000000000000000000000081525081526020016040518060400160405280600581526020017f576869746500000000000000000000000000000000000000000000000000000081525081526020016040518060400160405280600581526020017f42726f776e00000000000000000000000000000000000000000000000000000081525081526020016040518060400160405280600481526020017f477261790000000000000000000000000000000000000000000000000000000081525081526020016040518060400160405280600481526020017f50696e6b0000000000000000000000000000000000000000000000000000000081525081526020016040518060400160405280600481526020017f476f6c640000000000000000000000000000000000000000000000000000000081525081526020016040518060400160405280600681526020017f53696c766572000000000000000000000000000000000000000000000000000081525081526020016040518060400160405280600b81526020017f5472616e73706172656e7400000000000000000000000000000000000000000081525081526020016040518060400160405280600881526020017f496e766973626c65000000000000000000000000000000000000000000000000815250815250600b90600f620008b392919062001197565b506040518061028001604052806040518060400160405280600781526020017f556e69636f726e0000000000000000000000000000000000000000000000000081525081526020016040518060400160405280600781526020017f4d65726d6169640000000000000000000000000000000000000000000000000081525081526020016040518060400160405280600881526020017f57657265776f6c6600000000000000000000000000000000000000000000000081525081526020016040518060400160405280600581526020017f466169727900000000000000000000000000000000000000000000000000000081525081526020016040518060400160405280600681526020017f537068696e78000000000000000000000000000000000000000000000000000081525081526020016040518060400160405280600781526020017f43656e746175720000000000000000000000000000000000000000000000000081525081526020016040518060400160405280600481526020017f596574690000000000000000000000000000000000000000000000000000000081525081526020016040518060400160405280600a81526020017f4c65707265636861756e0000000000000000000000000000000000000000000081525081526020016040518060400160405280600581526020017f476e6f6d6500000000000000000000000000000000000000000000000000000081525081526020016040518060400160405280600581526020017f506978696500000000000000000000000000000000000000000000000000000081525081526020016040518060400160405280600581526020017f54726f6c6c00000000000000000000000000000000000000000000000000000081525081526020016040518060400160405280600781526020017f4379636c6f70730000000000000000000000000000000000000000000000000081525081526020016040518060400160405280600481526020017f4f6772650000000000000000000000000000000000000000000000000000000081525081526020016040518060400160405280600681526020017f476f626c696e000000000000000000000000000000000000000000000000000081525081526020016040518060400160405280600781526020017f56616d706972650000000000000000000000000000000000000000000000000081525081526020016040518060400160405280600681526020017f5a6f6d626965000000000000000000000000000000000000000000000000000081525081526020016040518060400160405280600881526020017f426173696c69736b00000000000000000000000000000000000000000000000081525081526020016040518060400160405280600781526020017f4772696666696e0000000000000000000000000000000000000000000000000081525081526020016040518060400160405280600681526020017f447261676f6e000000000000000000000000000000000000000000000000000081525081526020016040518060400160405280600781526020017f5065676173757300000000000000000000000000000000000000000000000000815250815250600c90601462000d6c92919062001130565b506040518060c001604052806040518060400160405280600381526020017f726564000000000000000000000000000000000000000000000000000000000081525081526020016040518060400160405280600781526020017f233038433241380000000000000000000000000000000000000000000000000081525081526020016040518060400160405280600581526020017f626c61636b00000000000000000000000000000000000000000000000000000081525081526020016040518060400160405280600681526020017f79656c6c6f77000000000000000000000000000000000000000000000000000081525081526020016040518060400160405280600481526020017f626c75650000000000000000000000000000000000000000000000000000000081525081526020016040518060400160405280600581526020017f677265656e000000000000000000000000000000000000000000000000000000815250815250600d90600662000eea929190620011fe565b506000600e5534801562000efd57600080fd5b506040518060400160405280601281526020017f4d7974686963616c2043726561747572657300000000000000000000000000008152506040518060400160405280600481526020017f4d59544800000000000000000000000000000000000000000000000000000000815250816000908051906020019062000f829291906200109f565b50806001908051906020019062000f9b9291906200109f565b50505062000fcd60405180606001604052806028815260200162004fa76028913962000fd360201b620013e41760201c565b6200141f565b620010738160405160240162000fea919062001333565b6040516020818303038152906040527f41304fac000000000000000000000000000000000000000000000000000000007bffffffffffffffffffffffffffffffffffffffffffffffffffffffff19166020820180517bffffffffffffffffffffffffffffffffffffffffffffffffffffffff83818316178352505050506200107660201b60201c565b50565b60008151905060006a636f6e736f6c652e6c6f679050602083016000808483855afa5050505050565b828054620010ad90620013a9565b90600052602060002090601f016020900481019282620010d157600085556200111d565b82601f10620010ec57805160ff19168380011785556200111d565b828001600101855582156200111d579182015b828111156200111c578251825591602001919060010190620010ff565b5b5090506200112c919062001265565b5090565b82805482825590600052602060002090810192821562001184579160200282015b8281111562001183578251829080519060200190620011729291906200109f565b509160200191906001019062001151565b5b50905062001193919062001284565b5090565b828054828255906000526020600020908101928215620011eb579160200282015b82811115620011ea578251829080519060200190620011d99291906200109f565b5091602001919060010190620011b8565b5b509050620011fa919062001284565b5090565b82805482825590600052602060002090810192821562001252579160200282015b8281111562001251578251829080519060200190620012409291906200109f565b50916020019190600101906200121f565b5b50905062001261919062001284565b5090565b5b808211156200128057600081600090555060010162001266565b5090565b5b80821115620012a857600081816200129e9190620012ac565b5060010162001285565b5090565b508054620012ba90620013a9565b6000825580601f10620012ce5750620012ef565b601f016020900490600052602060002090810190620012ee919062001265565b5b50565b6000620012ff8262001357565b6200130b818562001362565b93506200131d81856020860162001373565b62001328816200140e565b840191505092915050565b600060208201905081810360008301526200134f8184620012f2565b905092915050565b600081519050919050565b600082825260208201905092915050565b60005b838110156200139357808201518184015260208101905062001376565b83811115620013a3576000848401525b50505050565b60006002820490506001821680620013c257607f821691505b60208210811415620013d957620013d8620013df565b5b50919050565b7f4e487b7100000000000000000000000000000000000000000000000000000000600052602260045260246000fd5b6000601f19601f8301169050919050565b613b78806200142f6000396000f3fe608060405234801561001057600080fd5b50600436106101165760003560e01c80636352211e116100a2578063a7bf712411610071578063a7bf712414610317578063b88d4fde14610347578063c87b56dd14610363578063de9d132f14610393578063e985e9c51461039d57610116565b80636352211e1461027d57806370a08231146102ad57806395d89b41146102dd578063a22cb465146102fb57610116565b80630bc38ca1116100e95780630bc38ca1146101b557806323b872dd146101e557806342842e0e146102015780635068d1de1461021d578063514dc8c61461024d57610116565b806301ffc9a71461011b57806306fdde031461014b578063081812fc14610169578063095ea7b314610199575b600080fd5b61013560048036038101906101309190612713565b6103cd565b6040516101429190613399565b60405180910390f35b6101536104af565b60405161016091906133b4565b60405180910390f35b610183600480360381019061017e9190612765565b610541565b60405161019091906132fb565b60405180910390f35b6101b360048036038101906101ae91906126d7565b6105c6565b005b6101cf60048036038101906101ca9190612765565b6106de565b6040516101dc91906133b4565b60405180910390f35b6101ff60048036038101906101fa91906125d1565b6107fc565b005b61021b600480360381019061021691906125d1565b61085c565b005b61023760048036038101906102329190612765565b61087c565b60405161024491906133b4565b60405180910390f35b61026760048036038101906102629190612765565b61099a565b60405161027491906133b4565b60405180910390f35b61029760048036038101906102929190612765565b610ab8565b6040516102a491906132fb565b60405180910390f35b6102c760048036038101906102c2919061256c565b610b6a565b6040516102d49190613644565b60405180910390f35b6102e5610c22565b6040516102f291906133b4565b60405180910390f35b6103156004803603810190610310919061269b565b610cb4565b005b610331600480360381019061032c9190612765565b610e35565b60405161033e91906133b4565b60405180910390f35b610361600480360381019061035c9190612620565b610f53565b005b61037d60048036038101906103789190612765565b610fb5565b60405161038a91906133b4565b60405180910390f35b61039b611107565b005b6103b760048036038101906103b29190612595565b611350565b6040516103c49190613399565b60405180910390f35b60007f80ac58cd000000000000000000000000000000000000000000000000000000007bffffffffffffffffffffffffffffffffffffffffffffffffffffffff1916827bffffffffffffffffffffffffffffffffffffffffffffffffffffffff1916148061049857507f5b5e139f000000000000000000000000000000000000000000000000000000007bffffffffffffffffffffffffffffffffffffffffffffffffffffffff1916827bffffffffffffffffffffffffffffffffffffffffffffffffffffffff1916145b806104a857506104a78261147d565b5b9050919050565b6060600080546104be906138e3565b80601f01602080910402602001604051908101604052809291908181526020018280546104ea906138e3565b80156105375780601f1061050c57610100808354040283529160200191610537565b820191906000526020600020905b81548152906001019060200180831161051a57829003601f168201915b5050505050905090565b600061054c826114e7565b61058b576040517f08c379a0000000000000000000000000000000000000000000000000000000008152600401610582906135a4565b60405180910390fd5b6004600083815260200190815260200160002060009054906101000a900473ffffffffffffffffffffffffffffffffffffffff169050919050565b60006105d182610ab8565b90508073ffffffffffffffffffffffffffffffffffffffff168373ffffffffffffffffffffffffffffffffffffffff161415610642576040517f08c379a000000000000000000000000000000000000000000000000000000000815260040161063990613604565b60405180910390fd5b8073ffffffffffffffffffffffffffffffffffffffff16610661611553565b73ffffffffffffffffffffffffffffffffffffffff161480610690575061068f8161068a611553565b611350565b5b6106cf576040517f08c379a00000000000000000000000000000000000000000000000000000000081526004016106c6906134e4565b60405180910390fd5b6106d9838361155b565b505050565b606060006107126106ee84611614565b6040516020016106fe9190613273565b6040516020818303038152906040526117c1565b9050600c8054905081610725919061395e565b9050600c8181548110610761577f4e487b7100000000000000000000000000000000000000000000000000000000600052603260045260246000fd5b906000526020600020018054610776906138e3565b80601f01602080910402602001604051908101604052809291908181526020018280546107a2906138e3565b80156107ef5780601f106107c4576101008083540402835291602001916107ef565b820191906000526020600020905b8154815290600101906020018083116107d257829003601f168201915b5050505050915050919050565b61080d610807611553565b826117f4565b61084c576040517f08c379a000000000000000000000000000000000000000000000000000000000815260040161084390613624565b60405180910390fd5b6108578383836118d2565b505050565b61087783838360405180602001604052806000815250610f53565b505050565b606060006108b061088c84611614565b60405160200161089c91906132d9565b6040516020818303038152906040526117c1565b9050600d80549050816108c3919061395e565b9050600b81815481106108ff577f4e487b7100000000000000000000000000000000000000000000000000000000600052603260045260246000fd5b906000526020600020018054610914906138e3565b80601f0160208091040260200160405190810160405280929190818152602001828054610940906138e3565b801561098d5780601f106109625761010080835404028352916020019161098d565b820191906000526020600020905b81548152906001019060200180831161097057829003601f168201915b5050505050915050919050565b606060006109ce6109aa84611614565b6040516020016109ba91906132b7565b6040516020818303038152906040526117c1565b9050600b80549050816109e1919061395e565b9050600b8181548110610a1d577f4e487b7100000000000000000000000000000000000000000000000000000000600052603260045260246000fd5b906000526020600020018054610a32906138e3565b80601f0160208091040260200160405190810160405280929190818152602001828054610a5e906138e3565b8015610aab5780601f10610a8057610100808354040283529160200191610aab565b820191906000526020600020905b815481529060010190602001808311610a8e57829003601f168201915b5050505050915050919050565b6000806002600084815260200190815260200160002060009054906101000a900473ffffffffffffffffffffffffffffffffffffffff169050600073ffffffffffffffffffffffffffffffffffffffff168173ffffffffffffffffffffffffffffffffffffffff161415610b61576040517f08c379a0000000000000000000000000000000000000000000000000000000008152600401610b5890613524565b60405180910390fd5b80915050919050565b60008073ffffffffffffffffffffffffffffffffffffffff168273ffffffffffffffffffffffffffffffffffffffff161415610bdb576040517f08c379a0000000000000000000000000000000000000000000000000000000008152600401610bd290613504565b60405180910390fd5b600360008373ffffffffffffffffffffffffffffffffffffffff1673ffffffffffffffffffffffffffffffffffffffff168152602001908152602001600020549050919050565b606060018054610c31906138e3565b80601f0160208091040260200160405190810160405280929190818152602001828054610c5d906138e3565b8015610caa5780601f10610c7f57610100808354040283529160200191610caa565b820191906000526020600020905b815481529060010190602001808311610c8d57829003601f168201915b5050505050905090565b610cbc611553565b73ffffffffffffffffffffffffffffffffffffffff168273ffffffffffffffffffffffffffffffffffffffff161415610d2a576040517f08c379a0000000000000000000000000000000000000000000000000000000008152600401610d21906134a4565b60405180910390fd5b8060056000610d37611553565b73ffffffffffffffffffffffffffffffffffffffff1673ffffffffffffffffffffffffffffffffffffffff16815260200190815260200160002060008473ffffffffffffffffffffffffffffffffffffffff1673ffffffffffffffffffffffffffffffffffffffff16815260200190815260200160002060006101000a81548160ff0219169083151502179055508173ffffffffffffffffffffffffffffffffffffffff16610de4611553565b73ffffffffffffffffffffffffffffffffffffffff167f17307eab39ab6107e8899845ad3d59bd9653f200f220920489ca2b5937696c3183604051610e299190613399565b60405180910390a35050565b60606000610e69610e4584611614565b604051602001610e55919061320c565b6040516020818303038152906040526117c1565b9050600a8054905081610e7c919061395e565b9050600a8181548110610eb8577f4e487b7100000000000000000000000000000000000000000000000000000000600052603260045260246000fd5b906000526020600020018054610ecd906138e3565b80601f0160208091040260200160405190810160405280929190818152602001828054610ef9906138e3565b8015610f465780601f10610f1b57610100808354040283529160200191610f46565b820191906000526020600020905b815481529060010190602001808311610f2957829003601f168201915b5050505050915050919050565b610f64610f5e611553565b836117f4565b610fa3576040517f08c379a0000000000000000000000000000000000000000000000000000000008152600401610f9a90613624565b60405180910390fd5b610faf84848484611b2e565b50505050565b6060610fc0826114e7565b610fff576040517f08c379a0000000000000000000000000000000000000000000000000000000008152600401610ff690613584565b60405180910390fd5b600060066000848152602001908152602001600020805461101f906138e3565b80601f016020809104026020016040519081016040528092919081815260200182805461104b906138e3565b80156110985780601f1061106d57610100808354040283529160200191611098565b820191906000526020600020905b81548152906001019060200180831161107b57829003601f168201915b5050505050905060006110a9611b8a565b90506000815114156110bf578192505050611102565b6000825111156110f45780826040516020016110dc92919061316e565b60405160208183030381529060405292505050611102565b6110fd84611ba1565b925050505b919050565b6032600e541061113957611134604051806060016040528060258152602001613b1e602591396032611c48565b61134e565b60006111456007611ce4565b9050600061115282610e35565b9050600061115f8361099a565b9050600061116c846106de565b9050600083838360405160200161118593929190613192565b604051602081830303815290604052905060006111a18661087c565b905060006008826009856040516020016111be94939291906131c3565b60405160208183030381529060405290506000611203846111de84611cf2565b6040516020016111ef92919061322e565b604051602081830303815290604052611cf2565b90506000816040516020016112189190613295565b60405160208183030381529060405290506112676040518060400160405280601581526020017f0a2d2d2d2d2d2d2d2d2d2d2d2d2d2d2d2d2d2d2d2d00000000000000000000008152506113e4565b611270816113e4565b6112ae6040518060400160405280601581526020017f2d2d2d2d2d2d2d2d2d2d2d2d2d2d2d2d2d2d2d2d0a00000000000000000000008152506113e4565b6112b8338a611eb0565b6112c28982611ece565b6112cc6007611f42565b6112ef604051806060016040528060258152602001613ab9602591398a33611f58565b600e600081548092919061130290613915565b91905055507f9e9e101732de0887d722bd72c01c5439edc857c9c2c763953d67e66de12441d3338a600e5460405161133c93929190613362565b60405180910390a15050505050505050505b565b6000600560008473ffffffffffffffffffffffffffffffffffffffff1673ffffffffffffffffffffffffffffffffffffffff16815260200190815260200160002060008373ffffffffffffffffffffffffffffffffffffffff1673ffffffffffffffffffffffffffffffffffffffff16815260200190815260200160002060009054906101000a900460ff16905092915050565b61147a816040516024016113f891906133b4565b6040516020818303038152906040527f41304fac000000000000000000000000000000000000000000000000000000007bffffffffffffffffffffffffffffffffffffffffffffffffffffffff19166020820180517bffffffffffffffffffffffffffffffffffffffffffffffffffffffff8381831617835250505050611ff7565b50565b60007f01ffc9a7000000000000000000000000000000000000000000000000000000007bffffffffffffffffffffffffffffffffffffffffffffffffffffffff1916827bffffffffffffffffffffffffffffffffffffffffffffffffffffffff1916149050919050565b60008073ffffffffffffffffffffffffffffffffffffffff166002600084815260200190815260200160002060009054906101000a900473ffffffffffffffffffffffffffffffffffffffff1673ffffffffffffffffffffffffffffffffffffffff1614159050919050565b600033905090565b816004600083815260200190815260200160002060006101000a81548173ffffffffffffffffffffffffffffffffffffffff021916908373ffffffffffffffffffffffffffffffffffffffff160217905550808273ffffffffffffffffffffffffffffffffffffffff166115ce83610ab8565b73ffffffffffffffffffffffffffffffffffffffff167f8c5be1e5ebec7d5bd14f71427d1e84f3dd0314c0f7b2291e5b200ac8c7c3b92560405160405180910390a45050565b6060600082141561165c576040518060400160405280600181526020017f300000000000000000000000000000000000000000000000000000000000000081525090506117bc565b600082905060005b6000821461168e57808061167790613915565b915050600a82611687919061376e565b9150611664565b60008167ffffffffffffffff8111156116d0577f4e487b7100000000000000000000000000000000000000000000000000000000600052604160045260246000fd5b6040519080825280601f01601f1916602001820160405280156117025781602001600182028036833780820191505090505b5090505b600085146117b55760018261171b91906137f9565b9150600a8561172a919061395e565b60306117369190613718565b60f81b818381518110611772577f4e487b7100000000000000000000000000000000000000000000000000000000600052603260045260246000fd5b60200101907effffffffffffffffffffffffffffffffffffffffffffffffffffffffffffff1916908160001a905350600a856117ae919061376e565b9450611706565b8093505050505b919050565b6000816040516020016117d49190613157565b6040516020818303038152906040528051906020012060001c9050919050565b60006117ff826114e7565b61183e576040517f08c379a0000000000000000000000000000000000000000000000000000000008152600401611835906134c4565b60405180910390fd5b600061184983610ab8565b90508073ffffffffffffffffffffffffffffffffffffffff168473ffffffffffffffffffffffffffffffffffffffff1614806118b857508373ffffffffffffffffffffffffffffffffffffffff166118a084610541565b73ffffffffffffffffffffffffffffffffffffffff16145b806118c957506118c88185611350565b5b91505092915050565b8273ffffffffffffffffffffffffffffffffffffffff166118f282610ab8565b73ffffffffffffffffffffffffffffffffffffffff1614611948576040517f08c379a000000000000000000000000000000000000000000000000000000000815260040161193f906135c4565b60405180910390fd5b600073ffffffffffffffffffffffffffffffffffffffff168273ffffffffffffffffffffffffffffffffffffffff1614156119b8576040517f08c379a00000000000000000000000000000000000000000000000000000000081526004016119af90613484565b60405180910390fd5b6119c3838383612020565b6119ce60008261155b565b6001600360008573ffffffffffffffffffffffffffffffffffffffff1673ffffffffffffffffffffffffffffffffffffffff1681526020019081526020016000206000828254611a1e91906137f9565b925050819055506001600360008473ffffffffffffffffffffffffffffffffffffffff1673ffffffffffffffffffffffffffffffffffffffff1681526020019081526020016000206000828254611a759190613718565b92505081905550816002600083815260200190815260200160002060006101000a81548173ffffffffffffffffffffffffffffffffffffffff021916908373ffffffffffffffffffffffffffffffffffffffff160217905550808273ffffffffffffffffffffffffffffffffffffffff168473ffffffffffffffffffffffffffffffffffffffff167fddf252ad1be2c89b69c2b068fc378daa952ba7f163c4a11628f55a4df523b3ef60405160405180910390a4505050565b611b398484846118d2565b611b4584848484612025565b611b84576040517f08c379a0000000000000000000000000000000000000000000000000000000008152600401611b7b90613444565b60405180910390fd5b50505050565b606060405180602001604052806000815250905090565b6060611bac826114e7565b611beb576040517f08c379a0000000000000000000000000000000000000000000000000000000008152600401611be2906135e4565b60405180910390fd5b6000611bf5611b8a565b90506000815111611c155760405180602001604052806000815250611c40565b80611c1f84611614565b604051602001611c3092919061316e565b6040516020818303038152906040525b915050919050565b611ce08282604051602401611c5e9291906133d6565b6040516020818303038152906040527f9710a9d0000000000000000000000000000000000000000000000000000000007bffffffffffffffffffffffffffffffffffffffffffffffffffffffff19166020820180517bffffffffffffffffffffffffffffffffffffffffffffffffffffffff8381831617835250505050611ff7565b5050565b600081600001549050919050565b60606000825190506000811415611d1b5760405180602001604052806000815250915050611eab565b60006003600283611d2c9190613718565b611d36919061376e565b6004611d42919061379f565b90506000602082611d539190613718565b67ffffffffffffffff811115611d92577f4e487b7100000000000000000000000000000000000000000000000000000000600052604160045260246000fd5b6040519080825280601f01601f191660200182016040528015611dc45781602001600182028036833780820191505090505b5090506000604051806060016040528060408152602001613ade604091399050600181016020830160005b86811015611e685760038101905062ffffff818a015116603f8160121c168401518060081b905060ff603f83600c1c1686015116810190508060081b905060ff603f8360061c1686015116810190508060081b905060ff603f831686015116810190508060e01b90508084526004840193505050611def565b506003860660018114611e825760028114611e9257611e9d565b613d3d60f01b6002830352611e9d565b603d60f81b60018303525b508484525050819450505050505b919050565b611eca8282604051806020016040528060008152506121bc565b5050565b611ed7826114e7565b611f16576040517f08c379a0000000000000000000000000000000000000000000000000000000008152600401611f0d90613544565b60405180910390fd5b80600660008481526020019081526020016000209080519060200190611f3d9291906123f8565b505050565b6001816000016000828254019250508190555050565b611ff2838383604051602401611f7093929190613406565b6040516020818303038152906040527fe3849f79000000000000000000000000000000000000000000000000000000007bffffffffffffffffffffffffffffffffffffffffffffffffffffffff19166020820180517bffffffffffffffffffffffffffffffffffffffffffffffffffffffff8381831617835250505050611ff7565b505050565b60008151905060006a636f6e736f6c652e6c6f679050602083016000808483855afa5050505050565b505050565b60006120468473ffffffffffffffffffffffffffffffffffffffff16612217565b156121af578373ffffffffffffffffffffffffffffffffffffffff1663150b7a0261206f611553565b8786866040518563ffffffff1660e01b81526004016120919493929190613316565b602060405180830381600087803b1580156120ab57600080fd5b505af19250505080156120dc57506040513d601f19601f820116820180604052508101906120d9919061273c565b60015b61215f573d806000811461210c576040519150601f19603f3d011682016040523d82523d6000602084013e612111565b606091505b50600081511415612157576040517f08c379a000000000000000000000000000000000000000000000000000000000815260040161214e90613444565b60405180910390fd5b805181602001fd5b63150b7a0260e01b7bffffffffffffffffffffffffffffffffffffffffffffffffffffffff1916817bffffffffffffffffffffffffffffffffffffffffffffffffffffffff1916149150506121b4565b600190505b949350505050565b6121c6838361222a565b6121d36000848484612025565b612212576040517f08c379a000000000000000000000000000000000000000000000000000000000815260040161220990613444565b60405180910390fd5b505050565b600080823b905060008111915050919050565b600073ffffffffffffffffffffffffffffffffffffffff168273ffffffffffffffffffffffffffffffffffffffff16141561229a576040517f08c379a000000000000000000000000000000000000000000000000000000000815260040161229190613564565b60405180910390fd5b6122a3816114e7565b156122e3576040517f08c379a00000000000000000000000000000000000000000000000000000000081526004016122da90613464565b60405180910390fd5b6122ef60008383612020565b6001600360008473ffffffffffffffffffffffffffffffffffffffff1673ffffffffffffffffffffffffffffffffffffffff168152602001908152602001600020600082825461233f9190613718565b92505081905550816002600083815260200190815260200160002060006101000a81548173ffffffffffffffffffffffffffffffffffffffff021916908373ffffffffffffffffffffffffffffffffffffffff160217905550808273ffffffffffffffffffffffffffffffffffffffff16600073ffffffffffffffffffffffffffffffffffffffff167fddf252ad1be2c89b69c2b068fc378daa952ba7f163c4a11628f55a4df523b3ef60405160405180910390a45050565b828054612404906138e3565b90600052602060002090601f016020900481019282612426576000855561246d565b82601f1061243f57805160ff191683800117855561246d565b8280016001018555821561246d579182015b8281111561246c578251825591602001919060010190612451565b5b50905061247a919061247e565b5090565b5b8082111561249757600081600090555060010161247f565b5090565b60006124ae6124a984613690565b61365f565b9050828152602081018484840111156124c657600080fd5b6124d18482856138a1565b509392505050565b6000813590506124e881613a5c565b92915050565b6000813590506124fd81613a73565b92915050565b60008135905061251281613a8a565b92915050565b60008151905061252781613a8a565b92915050565b600082601f83011261253e57600080fd5b813561254e84826020860161249b565b91505092915050565b60008135905061256681613aa1565b92915050565b60006020828403121561257e57600080fd5b600061258c848285016124d9565b91505092915050565b600080604083850312156125a857600080fd5b60006125b6858286016124d9565b92505060206125c7858286016124d9565b9150509250929050565b6000806000606084860312156125e657600080fd5b60006125f4868287016124d9565b9350506020612605868287016124d9565b925050604061261686828701612557565b9150509250925092565b6000806000806080858703121561263657600080fd5b6000612644878288016124d9565b9450506020612655878288016124d9565b935050604061266687828801612557565b925050606085013567ffffffffffffffff81111561268357600080fd5b61268f8782880161252d565b91505092959194509250565b600080604083850312156126ae57600080fd5b60006126bc858286016124d9565b92505060206126cd858286016124ee565b9150509250929050565b600080604083850312156126ea57600080fd5b60006126f8858286016124d9565b925050602061270985828601612557565b9150509250929050565b60006020828403121561272557600080fd5b600061273384828501612503565b91505092915050565b60006020828403121561274e57600080fd5b600061275c84828501612518565b91505092915050565b60006020828403121561277757600080fd5b600061278584828501612557565b91505092915050565b6127978161382d565b82525050565b6127a68161383f565b82525050565b60006127b7826136d5565b6127c181856136eb565b93506127d18185602086016138b0565b6127da81613a4b565b840191505092915050565b60006127f0826136e0565b6127fa81856136fc565b935061280a8185602086016138b0565b61281381613a4b565b840191505092915050565b6000612829826136e0565b612833818561370d565b93506128438185602086016138b0565b80840191505092915050565b6000815461285c816138e3565b612866818661370d565b945060018216600081146128815760018114612892576128c5565b60ff198316865281860193506128c5565b61289b856136c0565b60005b838110156128bd5781548189015260018201915060208101905061289e565b838801955050505b50505092915050565b60006128db6032836136fc565b91507f4552433732313a207472616e7366657220746f206e6f6e20455243373231526560008301527f63656976657220696d706c656d656e74657200000000000000000000000000006020830152604082019050919050565b6000612941601c836136fc565b91507f4552433732313a20746f6b656e20616c7265616479206d696e746564000000006000830152602082019050919050565b60006129816024836136fc565b91507f4552433732313a207472616e7366657220746f20746865207a65726f2061646460008301527f72657373000000000000000000000000000000000000000000000000000000006020830152604082019050919050565b60006129e76019836136fc565b91507f4552433732313a20617070726f766520746f2063616c6c6572000000000000006000830152602082019050919050565b6000612a27602c836136fc565b91507f4552433732313a206f70657261746f7220717565727920666f72206e6f6e657860008301527f697374656e7420746f6b656e00000000000000000000000000000000000000006020830152604082019050919050565b6000612a8d600d8361370d565b91507f3c2f746578743e3c2f7376673e000000000000000000000000000000000000006000830152600d82019050919050565b6000612acd60098361370d565b91507f41444a45435449564500000000000000000000000000000000000000000000006000830152600982019050919050565b6000612b0d6038836136fc565b91507f4552433732313a20617070726f76652063616c6c6572206973206e6f74206f7760008301527f6e6572206e6f7220617070726f76656420666f7220616c6c00000000000000006020830152604082019050919050565b6000612b73602a836136fc565b91507f4552433732313a2062616c616e636520717565727920666f7220746865207a6560008301527f726f2061646472657373000000000000000000000000000000000000000000006020830152604082019050919050565b6000612bd96029836136fc565b91507f4552433732313a206f776e657220717565727920666f72206e6f6e657869737460008301527f656e7420746f6b656e00000000000000000000000000000000000000000000006020830152604082019050919050565b6000612c3f602e836136fc565b91507f45524337323155524953746f726167653a2055524920736574206f66206e6f6e60008301527f6578697374656e7420746f6b656e0000000000000000000000000000000000006020830152604082019050919050565b6000612ca560028361370d565b91507f227d0000000000000000000000000000000000000000000000000000000000006000830152600282019050919050565b6000612ce56020836136fc565b91507f4552433732313a206d696e7420746f20746865207a65726f20616464726573736000830152602082019050919050565b6000612d256031836136fc565b91507f45524337323155524953746f726167653a2055524920717565727920666f722060008301527f6e6f6e6578697374656e7420746f6b656e0000000000000000000000000000006020830152604082019050919050565b6000612d8b602c836136fc565b91507f4552433732313a20617070726f76656420717565727920666f72206e6f6e657860008301527f697374656e7420746f6b656e00000000000000000000000000000000000000006020830152604082019050919050565b6000612df16029836136fc565b91507f4552433732313a207472616e73666572206f6620746f6b656e2074686174206960008301527f73206e6f74206f776e00000000000000000000000000000000000000000000006020830152604082019050919050565b6000612e57602f836136fc565b91507f4552433732314d657461646174613a2055524920717565727920666f72206e6f60008301527f6e6578697374656e7420746f6b656e00000000000000000000000000000000006020830152604082019050919050565b6000612ebd600a8361370d565b91507f7b226e616d65223a2022000000000000000000000000000000000000000000006000830152600a82019050919050565b6000612efd60088361370d565b91507f43524541545552450000000000000000000000000000000000000000000000006000830152600882019050919050565b6000612f3d6021836136fc565b91507f4552433732313a20617070726f76616c20746f2063757272656e74206f776e6560008301527f72000000000000000000000000000000000000000000000000000000000000006020830152604082019050919050565b6000612fa3604d8361370d565b91507f222c20226465736372697074696f6e223a202241206d7974686963616c20637260008301527f656174757265222c2022696d616765223a2022646174613a696d6167652f737660208301527f672b786d6c3b6261736536342c000000000000000000000000000000000000006040830152604d82019050919050565b600061302f601d8361370d565b91507f646174613a6170706c69636174696f6e2f6a736f6e3b6261736536342c0000006000830152601d82019050919050565b600061306f6031836136fc565b91507f4552433732313a207472616e736665722063616c6c6572206973206e6f74206f60008301527f776e6572206e6f7220617070726f7665640000000000000000000000000000006020830152604082019050919050565b60006130d560058361370d565b91507f434f4c4f520000000000000000000000000000000000000000000000000000006000830152600582019050919050565b6000613115600a8361370d565b91507f4241434b47524f554e44000000000000000000000000000000000000000000006000830152600a82019050919050565b61315181613897565b82525050565b6000613163828461281e565b915081905092915050565b600061317a828561281e565b9150613186828461281e565b91508190509392505050565b600061319e828661281e565b91506131aa828561281e565b91506131b6828461281e565b9150819050949350505050565b60006131cf828761284f565b91506131db828661281e565b91506131e7828561284f565b91506131f3828461281e565b91506131fe82612a80565b915081905095945050505050565b600061321782612ac0565b9150613223828461281e565b915081905092915050565b600061323982612eb0565b9150613245828561281e565b915061325082612f96565b915061325c828461281e565b915061326782612c98565b91508190509392505050565b600061327e82612ef0565b915061328a828461281e565b915081905092915050565b60006132a082613022565b91506132ac828461281e565b915081905092915050565b60006132c2826130c8565b91506132ce828461281e565b915081905092915050565b60006132e482613108565b91506132f0828461281e565b915081905092915050565b6000602082019050613310600083018461278e565b92915050565b600060808201905061332b600083018761278e565b613338602083018661278e565b6133456040830185613148565b818103606083015261335781846127ac565b905095945050505050565b6000606082019050613377600083018661278e565b6133846020830185613148565b6133916040830184613148565b949350505050565b60006020820190506133ae600083018461279d565b92915050565b600060208201905081810360008301526133ce81846127e5565b905092915050565b600060408201905081810360008301526133f081856127e5565b90506133ff6020830184613148565b9392505050565b6000606082019050818103600083015261342081866127e5565b905061342f6020830185613148565b61343c604083018461278e565b949350505050565b6000602082019050818103600083015261345d816128ce565b9050919050565b6000602082019050818103600083015261347d81612934565b9050919050565b6000602082019050818103600083015261349d81612974565b9050919050565b600060208201905081810360008301526134bd816129da565b9050919050565b600060208201905081810360008301526134dd81612a1a565b9050919050565b600060208201905081810360008301526134fd81612b00565b9050919050565b6000602082019050818103600083015261351d81612b66565b9050919050565b6000602082019050818103600083015261353d81612bcc565b9050919050565b6000602082019050818103600083015261355d81612c32565b9050919050565b6000602082019050818103600083015261357d81612cd8565b9050919050565b6000602082019050818103600083015261359d81612d18565b9050919050565b600060208201905081810360008301526135bd81612d7e565b9050919050565b600060208201905081810360008301526135dd81612de4565b9050919050565b600060208201905081810360008301526135fd81612e4a565b9050919050565b6000602082019050818103600083015261361d81612f30565b9050919050565b6000602082019050818103600083015261363d81613062565b9050919050565b60006020820190506136596000830184613148565b92915050565b6000604051905081810181811067ffffffffffffffff8211171561368657613685613a1c565b5b8060405250919050565b600067ffffffffffffffff8211156136ab576136aa613a1c565b5b601f19601f8301169050602081019050919050565b60008190508160005260206000209050919050565b600081519050919050565b600081519050919050565b600082825260208201905092915050565b600082825260208201905092915050565b600081905092915050565b600061372382613897565b915061372e83613897565b9250827fffffffffffffffffffffffffffffffffffffffffffffffffffffffffffffffff038211156137635761376261398f565b5b828201905092915050565b600061377982613897565b915061378483613897565b925082613794576137936139be565b5b828204905092915050565b60006137aa82613897565b91506137b583613897565b9250817fffffffffffffffffffffffffffffffffffffffffffffffffffffffffffffffff04831182151516156137ee576137ed61398f565b5b828202905092915050565b600061380482613897565b915061380f83613897565b9250828210156138225761382161398f565b5b828203905092915050565b600061383882613877565b9050919050565b60008115159050919050565b60007fffffffff0000000000000000000000000000000000000000000000000000000082169050919050565b600073ffffffffffffffffffffffffffffffffffffffff82169050919050565b6000819050919050565b82818337600083830152505050565b60005b838110156138ce5780820151818401526020810190506138b3565b838111156138dd576000848401525b50505050565b600060028204905060018216806138fb57607f821691505b6020821081141561390f5761390e6139ed565b5b50919050565b600061392082613897565b91507fffffffffffffffffffffffffffffffffffffffffffffffffffffffffffffffff8214156139535761395261398f565b5b600182019050919050565b600061396982613897565b915061397483613897565b925082613984576139836139be565b5b828206905092915050565b7f4e487b7100000000000000000000000000000000000000000000000000000000600052601160045260246000fd5b7f4e487b7100000000000000000000000000000000000000000000000000000000600052601260045260246000fd5b7f4e487b7100000000000000000000000000000000000000000000000000000000600052602260045260246000fd5b7f4e487b7100000000000000000000000000000000000000000000000000000000600052604160045260246000fd5b6000601f19601f8301169050919050565b613a658161382d565b8114613a7057600080fd5b50565b613a7c8161383f565b8114613a8757600080fd5b50565b613a938161384b565b8114613a9e57600080fd5b50565b613aaa81613897565b8114613ab557600080fd5b5056fe416e204e465420772f20494420257320686173206265656e206d696e74656420746f2025734142434445464748494a4b4c4d4e4f505152535455565758595a6162636465666768696a6b6c6d6e6f707172737475767778797a303132333435363738392b2f416c6c202564204e465473206861766520616c7265616479206265656e206d696e7465642ea26469706673582212204ee9d20be8564811390eb61f6b35639b66b471d490106c1f9d46e36aa2dc234064736f6c6343000800003354686973206973206d79204e465420636f6e74726163742e204f68686868205965616868686868213c73766720786d6c6e733d27687474703a2f2f7777772e77332e6f72672f323030302f73766727207072657365727665417370656374526174696f3d27784d696e594d696e206d656574272076696577426f783d273020302033353020333530273e3c7374796c653e2e62617365207b2066696c6c3a2077686974653b20666f6e742d66616d696c793a2073657269663b20666f6e742d73697a653a20323470783b207d3c2f7374796c653e3c726563742077696474683d273130302527206865696768743d2731303025272066696c6c3d27272f3e3c7465787420783d273530252720793d273530252720636c6173733d27626173652720646f6d696e616e742d626173656c696e653d276d6964646c652720746578742d616e63686f723d276d6964646c65273e",
  "linkReferences": {},
  "deployedLinkReferences": {}
}