{
  "_format": "hh-sol-artifact-1",
  "contractName": "MyEpicNFT",
  "sourceName": "contracts/MyEpicNFT.sol",
  "abi": [
    {
      "inputs": [],
      "stateMutability": "nonpayable",
      "type": "constructor"
    },
    {
      "anonymous": false,
      "inputs": [
        {
          "indexed": true,
          "internalType": "address",
          "name": "owner",
          "type": "address"
        },
        {
          "indexed": true,
          "internalType": "address",
          "name": "approved",
          "type": "address"
        },
        {
          "indexed": true,
          "internalType": "uint256",
          "name": "tokenId",
          "type": "uint256"
        }
      ],
      "name": "Approval",
      "type": "event"
    },
    {
      "anonymous": false,
      "inputs": [
        {
          "indexed": true,
          "internalType": "address",
          "name": "owner",
          "type": "address"
        },
        {
          "indexed": true,
          "internalType": "address",
          "name": "operator",
          "type": "address"
        },
        {
          "indexed": false,
          "internalType": "bool",
          "name": "approved",
          "type": "bool"
        }
      ],
      "name": "ApprovalForAll",
      "type": "event"
    },
    {
      "anonymous": false,
      "inputs": [
        {
          "indexed": false,
          "internalType": "uint256",
          "name": "_fromTokenId",
          "type": "uint256"
        },
        {
          "indexed": false,
          "internalType": "uint256",
          "name": "_toTokenId",
          "type": "uint256"
        }
      ],
      "name": "BatchMetadataUpdate",
      "type": "event"
    },
    {
      "anonymous": false,
      "inputs": [
        {
          "indexed": false,
          "internalType": "uint256",
          "name": "_tokenId",
          "type": "uint256"
        }
      ],
      "name": "MetadataUpdate",
      "type": "event"
    },
    {
      "anonymous": false,
      "inputs": [
        {
          "indexed": false,
          "internalType": "address",
          "name": "sender",
          "type": "address"
        },
        {
          "indexed": false,
          "internalType": "uint256",
          "name": "tokenId",
          "type": "uint256"
        },
        {
          "indexed": false,
          "internalType": "uint256",
          "name": "nftCount",
          "type": "uint256"
        }
      ],
      "name": "NewEpicNFTMinted",
      "type": "event"
    },
    {
      "anonymous": false,
      "inputs": [
        {
          "indexed": true,
          "internalType": "address",
          "name": "from",
          "type": "address"
        },
        {
          "indexed": true,
          "internalType": "address",
          "name": "to",
          "type": "address"
        },
        {
          "indexed": true,
          "internalType": "uint256",
          "name": "tokenId",
          "type": "uint256"
        }
      ],
      "name": "Transfer",
      "type": "event"
    },
    {
      "inputs": [
        {
          "internalType": "address",
          "name": "to",
          "type": "address"
        },
        {
          "internalType": "uint256",
          "name": "tokenId",
          "type": "uint256"
        }
      ],
      "name": "approve",
      "outputs": [],
      "stateMutability": "nonpayable",
      "type": "function"
    },
    {
      "inputs": [
        {
          "internalType": "address",
          "name": "owner",
          "type": "address"
        }
      ],
      "name": "balanceOf",
      "outputs": [
        {
          "internalType": "uint256",
          "name": "",
          "type": "uint256"
        }
      ],
      "stateMutability": "view",
      "type": "function"
    },
    {
      "inputs": [
        {
          "internalType": "uint256",
          "name": "tokenId",
          "type": "uint256"
        }
      ],
      "name": "getApproved",
      "outputs": [
        {
          "internalType": "address",
          "name": "",
          "type": "address"
        }
      ],
      "stateMutability": "view",
      "type": "function"
    },
    {
      "inputs": [
        {
          "internalType": "address",
          "name": "owner",
          "type": "address"
        },
        {
          "internalType": "address",
          "name": "operator",
          "type": "address"
        }
      ],
      "name": "isApprovedForAll",
      "outputs": [
        {
          "internalType": "bool",
          "name": "",
          "type": "bool"
        }
      ],
      "stateMutability": "view",
      "type": "function"
    },
    {
      "inputs": [],
      "name": "makeAnEpicNFT",
      "outputs": [],
      "stateMutability": "nonpayable",
      "type": "function"
    },
    {
      "inputs": [],
      "name": "name",
      "outputs": [
        {
          "internalType": "string",
          "name": "",
          "type": "string"
        }
      ],
      "stateMutability": "view",
      "type": "function"
    },
    {
      "inputs": [
        {
          "internalType": "uint256",
          "name": "tokenId",
          "type": "uint256"
        }
      ],
      "name": "ownerOf",
      "outputs": [
        {
          "internalType": "address",
          "name": "",
          "type": "address"
        }
      ],
      "stateMutability": "view",
      "type": "function"
    },
    {
      "inputs": [
        {
          "internalType": "uint256",
          "name": "tokenId",
          "type": "uint256"
        }
      ],
      "name": "pickRandomAdjective",
      "outputs": [
        {
          "internalType": "string",
          "name": "",
          "type": "string"
        }
      ],
      "stateMutability": "view",
      "type": "function"
    },
    {
      "inputs": [
        {
          "internalType": "uint256",
          "name": "tokenId",
          "type": "uint256"
        }
      ],
      "name": "pickRandomBackground",
      "outputs": [
        {
          "internalType": "string",
          "name": "",
          "type": "string"
        }
      ],
      "stateMutability": "view",
      "type": "function"
    },
    {
      "inputs": [
        {
          "internalType": "uint256",
          "name": "tokenId",
          "type": "uint256"
        }
      ],
      "name": "pickRandomColor",
      "outputs": [
        {
          "internalType": "string",
          "name": "",
          "type": "string"
        }
      ],
      "stateMutability": "view",
      "type": "function"
    },
    {
      "inputs": [
        {
          "internalType": "uint256",
          "name": "tokenId",
          "type": "uint256"
        }
      ],
      "name": "pickRandomCreature",
      "outputs": [
        {
          "internalType": "string",
          "name": "",
          "type": "string"
        }
      ],
      "stateMutability": "view",
      "type": "function"
    },
    {
      "inputs": [
        {
          "internalType": "address",
          "name": "from",
          "type": "address"
        },
        {
          "internalType": "address",
          "name": "to",
          "type": "address"
        },
        {
          "internalType": "uint256",
          "name": "tokenId",
          "type": "uint256"
        }
      ],
      "name": "safeTransferFrom",
      "outputs": [],
      "stateMutability": "nonpayable",
      "type": "function"
    },
    {
      "inputs": [
        {
          "internalType": "address",
          "name": "from",
          "type": "address"
        },
        {
          "internalType": "address",
          "name": "to",
          "type": "address"
        },
        {
          "internalType": "uint256",
          "name": "tokenId",
          "type": "uint256"
        },
        {
          "internalType": "bytes",
          "name": "data",
          "type": "bytes"
        }
      ],
      "name": "safeTransferFrom",
      "outputs": [],
      "stateMutability": "nonpayable",
      "type": "function"
    },
    {
      "inputs": [
        {
          "internalType": "address",
          "name": "operator",
          "type": "address"
        },
        {
          "internalType": "bool",
          "name": "approved",
          "type": "bool"
        }
      ],
      "name": "setApprovalForAll",
      "outputs": [],
      "stateMutability": "nonpayable",
      "type": "function"
    },
    {
      "inputs": [
        {
          "internalType": "bytes4",
          "name": "interfaceId",
          "type": "bytes4"
        }
      ],
      "name": "supportsInterface",
      "outputs": [
        {
          "internalType": "bool",
          "name": "",
          "type": "bool"
        }
      ],
      "stateMutability": "view",
      "type": "function"
    },
    {
      "inputs": [],
      "name": "symbol",
      "outputs": [
        {
          "internalType": "string",
          "name": "",
          "type": "string"
        }
      ],
      "stateMutability": "view",
      "type": "function"
    },
    {
      "inputs": [
        {
          "internalType": "uint256",
          "name": "tokenId",
          "type": "uint256"
        }
      ],
      "name": "tokenURI",
      "outputs": [
        {
          "internalType": "string",
          "name": "",
          "type": "string"
        }
      ],
      "stateMutability": "view",
      "type": "function"
    },
    {
      "inputs": [
        {
          "internalType": "address",
          "name": "from",
          "type": "address"
        },
        {
          "internalType": "address",
          "name": "to",
          "type": "address"
        },
        {
          "internalType": "uint256",
          "name": "tokenId",
          "type": "uint256"
        }
      ],
      "name": "transferFrom",
      "outputs": [],
      "stateMutability": "nonpayable",
      "type": "function"
    }
  ],
  "bytecode": "0x608060405260405180610100016040528060d38152602001620051a860d391396008908051906020019062000036929190620010d4565b506040518060800160405280605681526020016200527b605691396009908051906020019062000068929190620010d4565b506040518061028001604052806040518060400160405280600681526020017f4d6967687479000000000000000000000000000000000000000000000000000081525081526020016040518060400160405280600781526020017f437572696f75730000000000000000000000000000000000000000000000000081525081526020016040518060400160405280600581526020017f536361727900000000000000000000000000000000000000000000000000000081525081526020016040518060400160405280600581526020017f486170707900000000000000000000000000000000000000000000000000000081525081526020016040518060400160405280600481526020017f457069630000000000000000000000000000000000000000000000000000000081525081526020016040518060400160405280600581526020017f4769616e7400000000000000000000000000000000000000000000000000000081525081526020016040518060400160405280600581526020017f46756e6e7900000000000000000000000000000000000000000000000000000081525081526020016040518060400160405280600481526020017f54696e790000000000000000000000000000000000000000000000000000000081525081526020016040518060400160405280600581526020017f4368696c6c00000000000000000000000000000000000000000000000000000081525081526020016040518060400160405280600581526020017f517569657400000000000000000000000000000000000000000000000000000081525081526020016040518060400160405280600481526020017f4c6f75640000000000000000000000000000000000000000000000000000000081525081526020016040518060400160405280600581526020017f456c69746500000000000000000000000000000000000000000000000000000081525081526020016040518060400160405280600581526020017f537769667400000000000000000000000000000000000000000000000000000081525081526020016040518060400160405280600581526020017f576974747900000000000000000000000000000000000000000000000000000081525081526020016040518060400160405280600981526020017f4c756d626572696e67000000000000000000000000000000000000000000000081525081526020016040518060400160405280600581526020017f517569636b00000000000000000000000000000000000000000000000000000081525081526020016040518060400160405280600481526020017f576973650000000000000000000000000000000000000000000000000000000081525081526020016040518060400160405280600881526020017f466561726c65737300000000000000000000000000000000000000000000000081525081526020016040518060400160405280600581526020017f546f75676800000000000000000000000000000000000000000000000000000081525081526020016040518060400160405280600781526020017f53757072656d6500000000000000000000000000000000000000000000000000815250815250600a9060146200052192919062001165565b50604051806101e001604052806040518060400160405280600381526020017f526564000000000000000000000000000000000000000000000000000000000081525081526020016040518060400160405280600481526020017f426c75650000000000000000000000000000000000000000000000000000000081525081526020016040518060400160405280600581526020017f477265656e00000000000000000000000000000000000000000000000000000081525081526020016040518060400160405280600681526020017f507572706c65000000000000000000000000000000000000000000000000000081525081526020016040518060400160405280600681526020017f4f72616e6765000000000000000000000000000000000000000000000000000081525081526020016040518060400160405280600681526020017f59656c6c6f77000000000000000000000000000000000000000000000000000081525081526020016040518060400160405280600581526020017f426c61636b00000000000000000000000000000000000000000000000000000081525081526020016040518060400160405280600581526020017f576869746500000000000000000000000000000000000000000000000000000081525081526020016040518060400160405280600581526020017f42726f776e00000000000000000000000000000000000000000000000000000081525081526020016040518060400160405280600481526020017f477261790000000000000000000000000000000000000000000000000000000081525081526020016040518060400160405280600481526020017f50696e6b0000000000000000000000000000000000000000000000000000000081525081526020016040518060400160405280600481526020017f476f6c640000000000000000000000000000000000000000000000000000000081525081526020016040518060400160405280600681526020017f53696c766572000000000000000000000000000000000000000000000000000081525081526020016040518060400160405280600b81526020017f5472616e73706172656e7400000000000000000000000000000000000000000081525081526020016040518060400160405280600881526020017f496e766973626c65000000000000000000000000000000000000000000000000815250815250600b90600f620008b3929190620011cc565b506040518061028001604052806040518060400160405280600781526020017f556e69636f726e0000000000000000000000000000000000000000000000000081525081526020016040518060400160405280600781526020017f4d65726d6169640000000000000000000000000000000000000000000000000081525081526020016040518060400160405280600881526020017f57657265776f6c6600000000000000000000000000000000000000000000000081525081526020016040518060400160405280600581526020017f466169727900000000000000000000000000000000000000000000000000000081525081526020016040518060400160405280600681526020017f537068696e78000000000000000000000000000000000000000000000000000081525081526020016040518060400160405280600781526020017f43656e746175720000000000000000000000000000000000000000000000000081525081526020016040518060400160405280600481526020017f596574690000000000000000000000000000000000000000000000000000000081525081526020016040518060400160405280600a81526020017f4c65707265636861756e0000000000000000000000000000000000000000000081525081526020016040518060400160405280600581526020017f476e6f6d6500000000000000000000000000000000000000000000000000000081525081526020016040518060400160405280600581526020017f506978696500000000000000000000000000000000000000000000000000000081525081526020016040518060400160405280600581526020017f54726f6c6c00000000000000000000000000000000000000000000000000000081525081526020016040518060400160405280600781526020017f4379636c6f70730000000000000000000000000000000000000000000000000081525081526020016040518060400160405280600481526020017f4f6772650000000000000000000000000000000000000000000000000000000081525081526020016040518060400160405280600681526020017f476f626c696e000000000000000000000000000000000000000000000000000081525081526020016040518060400160405280600781526020017f56616d706972650000000000000000000000000000000000000000000000000081525081526020016040518060400160405280600681526020017f5a6f6d626965000000000000000000000000000000000000000000000000000081525081526020016040518060400160405280600881526020017f426173696c69736b00000000000000000000000000000000000000000000000081525081526020016040518060400160405280600781526020017f4772696666696e0000000000000000000000000000000000000000000000000081525081526020016040518060400160405280600681526020017f447261676f6e000000000000000000000000000000000000000000000000000081525081526020016040518060400160405280600781526020017f5065676173757300000000000000000000000000000000000000000000000000815250815250600c90601462000d6c92919062001165565b506040518060c001604052806040518060400160405280600381526020017f726564000000000000000000000000000000000000000000000000000000000081525081526020016040518060400160405280600781526020017f233038433241380000000000000000000000000000000000000000000000000081525081526020016040518060400160405280600581526020017f626c61636b00000000000000000000000000000000000000000000000000000081525081526020016040518060400160405280600681526020017f79656c6c6f77000000000000000000000000000000000000000000000000000081525081526020016040518060400160405280600481526020017f626c75650000000000000000000000000000000000000000000000000000000081525081526020016040518060400160405280600581526020017f677265656e000000000000000000000000000000000000000000000000000000815250815250600d90600662000eea92919062001233565b506000600e5534801562000efd57600080fd5b506040518060400160405280601281526020017f4d7974686963616c2043726561747572657300000000000000000000000000008152506040518060400160405280600481526020017f4d59544800000000000000000000000000000000000000000000000000000000815250816000908051906020019062000f82929190620010d4565b50806001908051906020019062000f9b929190620010d4565b50505062000fcd604051806060016040528060288152602001620051806028913962000fd360201b6200114f1760201c565b62001483565b620010738160405160240162000fea919062001397565b6040516020818303038152906040527f41304fac000000000000000000000000000000000000000000000000000000007bffffffffffffffffffffffffffffffffffffffffffffffffffffffff19166020820180517bffffffffffffffffffffffffffffffffffffffffffffffffffffffff83818316178352505050506200107660201b60201c565b50565b6200109c81620010976200109f60201b620011e817620010c060201b60201c565b60201c565b50565b60006a636f6e736f6c652e6c6f679050600080835160208501845afa505050565b6200129a60201b6200268e17819050919050565b828054620010e2906200140d565b90600052602060002090601f01602090048101928262001106576000855562001152565b82601f106200112157805160ff191683800117855562001152565b8280016001018555821562001152579182015b828111156200115157825182559160200191906001019062001134565b5b509050620011619190620012c9565b5090565b828054828255906000526020600020908101928215620011b9579160200282015b82811115620011b8578251829080519060200190620011a7929190620010d4565b509160200191906001019062001186565b5b509050620011c89190620012e8565b5090565b82805482825590600052602060002090810192821562001220579160200282015b828111156200121f5782518290805190602001906200120e929190620010d4565b5091602001919060010190620011ed565b5b5090506200122f9190620012e8565b5090565b82805482825590600052602060002090810192821562001287579160200282015b828111156200128657825182908051906020019062001275929190620010d4565b509160200191906001019062001254565b5b509050620012969190620012e8565b5090565b7f4e487b7100000000000000000000000000000000000000000000000000000000600052605160045260246000fd5b5b80821115620012e4576000816000905550600101620012ca565b5090565b5b808211156200130c576000818162001302919062001310565b50600101620012e9565b5090565b5080546200131e906200140d565b6000825580601f1062001332575062001353565b601f016020900490600052602060002090810190620013529190620012c9565b5b50565b60006200136382620013bb565b6200136f8185620013c6565b935062001381818560208601620013d7565b6200138c8162001472565b840191505092915050565b60006020820190508181036000830152620013b3818462001356565b905092915050565b600081519050919050565b600082825260208201905092915050565b60005b83811015620013f7578082015181840152602081019050620013da565b8381111562001407576000848401525b50505050565b600060028204905060018216806200142657607f821691505b602082108114156200143d576200143c62001443565b5b50919050565b7f4e487b7100000000000000000000000000000000000000000000000000000000600052602260045260246000fd5b6000601f19601f8301169050919050565b613ced80620014936000396000f3fe608060405234801561001057600080fd5b50600436106101165760003560e01c80636352211e116100a2578063a7bf712411610071578063a7bf712414610317578063b88d4fde14610347578063c87b56dd14610363578063de9d132f14610393578063e985e9c51461039d57610116565b80636352211e1461027d57806370a08231146102ad57806395d89b41146102dd578063a22cb465146102fb57610116565b80630bc38ca1116100e95780630bc38ca1146101b557806323b872dd146101e557806342842e0e146102015780635068d1de1461021d578063514dc8c61461024d57610116565b806301ffc9a71461011b57806306fdde031461014b578063081812fc14610169578063095ea7b314610199575b600080fd5b610135600480360381019061013091906129d8565b6103cd565b60405161014291906130c3565b60405180910390f35b61015361042e565b60405161016091906130de565b60405180910390f35b610183600480360381019061017e9190612a2a565b6104c0565b6040516101909190613025565b60405180910390f35b6101b360048036038101906101ae919061299c565b610506565b005b6101cf60048036038101906101ca9190612a2a565b61061e565b6040516101dc91906130de565b60405180910390f35b6101ff60048036038101906101fa9190612896565b61073c565b005b61021b60048036038101906102169190612896565b61079c565b005b61023760048036038101906102329190612a2a565b6107bc565b60405161024491906130de565b60405180910390f35b61026760048036038101906102629190612a2a565b6108da565b60405161027491906130de565b60405180910390f35b61029760048036038101906102929190612a2a565b6109f8565b6040516102a49190613025565b60405180910390f35b6102c760048036038101906102c29190612831565b610a7f565b6040516102d491906132ee565b60405180910390f35b6102e5610b37565b6040516102f291906130de565b60405180910390f35b61031560048036038101906103109190612960565b610bc9565b005b610331600480360381019061032c9190612a2a565b610bdf565b60405161033e91906130de565b60405180910390f35b610361600480360381019061035c91906128e5565b610cfd565b005b61037d60048036038101906103789190612a2a565b610d5f565b60405161038a91906130de565b60405180910390f35b61039b610e72565b005b6103b760048036038101906103b2919061285a565b6110bb565b6040516103c491906130c3565b60405180910390f35b6000634906490660e01b7bffffffffffffffffffffffffffffffffffffffffffffffffffffffff1916827bffffffffffffffffffffffffffffffffffffffffffffffffffffffff19161480610427575061042682611209565b5b9050919050565b60606000805461043d9061354e565b80601f01602080910402602001604051908101604052809291908181526020018280546104699061354e565b80156104b65780601f1061048b576101008083540402835291602001916104b6565b820191906000526020600020905b81548152906001019060200180831161049957829003601f168201915b5050505050905090565b60006104cb826112eb565b6004600083815260200190815260200160002060009054906101000a900473ffffffffffffffffffffffffffffffffffffffff169050919050565b6000610511826109f8565b90508073ffffffffffffffffffffffffffffffffffffffff168373ffffffffffffffffffffffffffffffffffffffff161415610582576040517f08c379a0000000000000000000000000000000000000000000000000000000008152600401610579906132ae565b60405180910390fd5b8073ffffffffffffffffffffffffffffffffffffffff166105a1611336565b73ffffffffffffffffffffffffffffffffffffffff1614806105d057506105cf816105ca611336565b6110bb565b5b61060f576040517f08c379a0000000000000000000000000000000000000000000000000000000008152600401610606906132ce565b60405180910390fd5b610619838361133e565b505050565b6060600061065261062e846113f7565b60405160200161063e9190612f9d565b60405160208183030381529060405261151b565b9050600c805490508161066591906135fa565b9050600c81815481106106a1577f4e487b7100000000000000000000000000000000000000000000000000000000600052603260045260246000fd5b9060005260206000200180546106b69061354e565b80601f01602080910402602001604051908101604052809291908181526020018280546106e29061354e565b801561072f5780601f106107045761010080835404028352916020019161072f565b820191906000526020600020905b81548152906001019060200180831161071257829003601f168201915b5050505050915050919050565b61074d610747611336565b8261154e565b61078c576040517f08c379a00000000000000000000000000000000000000000000000000000000081526004016107839061316e565b60405180910390fd5b6107978383836115e3565b505050565b6107b783838360405180602001604052806000815250610cfd565b505050565b606060006107f06107cc846113f7565b6040516020016107dc9190613003565b60405160208183030381529060405261151b565b9050600d805490508161080391906135fa565b9050600b818154811061083f577f4e487b7100000000000000000000000000000000000000000000000000000000600052603260045260246000fd5b9060005260206000200180546108549061354e565b80601f01602080910402602001604051908101604052809291908181526020018280546108809061354e565b80156108cd5780601f106108a2576101008083540402835291602001916108cd565b820191906000526020600020905b8154815290600101906020018083116108b057829003601f168201915b5050505050915050919050565b6060600061090e6108ea846113f7565b6040516020016108fa9190612fe1565b60405160208183030381529060405261151b565b9050600b805490508161092191906135fa565b9050600b818154811061095d577f4e487b7100000000000000000000000000000000000000000000000000000000600052603260045260246000fd5b9060005260206000200180546109729061354e565b80601f016020809104026020016040519081016040528092919081815260200182805461099e9061354e565b80156109eb5780601f106109c0576101008083540402835291602001916109eb565b820191906000526020600020905b8154815290600101906020018083116109ce57829003601f168201915b5050505050915050919050565b600080610a04836118dd565b9050600073ffffffffffffffffffffffffffffffffffffffff168173ffffffffffffffffffffffffffffffffffffffff161415610a76576040517f08c379a0000000000000000000000000000000000000000000000000000000008152600401610a6d9061328e565b60405180910390fd5b80915050919050565b60008073ffffffffffffffffffffffffffffffffffffffff168273ffffffffffffffffffffffffffffffffffffffff161415610af0576040517f08c379a0000000000000000000000000000000000000000000000000000000008152600401610ae79061322e565b60405180910390fd5b600360008373ffffffffffffffffffffffffffffffffffffffff1673ffffffffffffffffffffffffffffffffffffffff168152602001908152602001600020549050919050565b606060018054610b469061354e565b80601f0160208091040260200160405190810160405280929190818152602001828054610b729061354e565b8015610bbf5780601f10610b9457610100808354040283529160200191610bbf565b820191906000526020600020905b815481529060010190602001808311610ba257829003601f168201915b5050505050905090565b610bdb610bd4611336565b838361191a565b5050565b60606000610c13610bef846113f7565b604051602001610bff9190612f36565b60405160208183030381529060405261151b565b9050600a8054905081610c2691906135fa565b9050600a8181548110610c62577f4e487b7100000000000000000000000000000000000000000000000000000000600052603260045260246000fd5b906000526020600020018054610c779061354e565b80601f0160208091040260200160405190810160405280929190818152602001828054610ca39061354e565b8015610cf05780601f10610cc557610100808354040283529160200191610cf0565b820191906000526020600020905b815481529060010190602001808311610cd357829003601f168201915b5050505050915050919050565b610d0e610d08611336565b8361154e565b610d4d576040517f08c379a0000000000000000000000000000000000000000000000000000000008152600401610d449061316e565b60405180910390fd5b610d5984848484611a87565b50505050565b6060610d6a826112eb565b6000600660008481526020019081526020016000208054610d8a9061354e565b80601f0160208091040260200160405190810160405280929190818152602001828054610db69061354e565b8015610e035780601f10610dd857610100808354040283529160200191610e03565b820191906000526020600020905b815481529060010190602001808311610de657829003601f168201915b505050505090506000610e14611ae3565b9050600081511415610e2a578192505050610e6d565b600082511115610e5f578082604051602001610e47929190612e98565b60405160208183030381529060405292505050610e6d565b610e6884611afa565b925050505b919050565b6032600e5410610ea457610e9f604051806060016040528060258152602001613c93602591396032611b62565b6110b9565b6000610eb06007611bfe565b90506000610ebd82610bdf565b90506000610eca836108da565b90506000610ed78461061e565b90506000838383604051602001610ef093929190612ebc565b60405160208183030381529060405290506000610f0c866107bc565b90506000600882600985604051602001610f299493929190612eed565b60405160208183030381529060405290506000610f6e84610f4984611c0c565b604051602001610f5a929190612f58565b604051602081830303815290604052611c0c565b9050600081604051602001610f839190612fbf565b6040516020818303038152906040529050610fd26040518060400160405280601581526020017f0a2d2d2d2d2d2d2d2d2d2d2d2d2d2d2d2d2d2d2d2d000000000000000000000081525061114f565b610fdb8161114f565b6110196040518060400160405280601581526020017f2d2d2d2d2d2d2d2d2d2d2d2d2d2d2d2d2d2d2d2d0a000000000000000000000081525061114f565b611023338a611dca565b61102d8982611de8565b6110376007611e93565b61105a604051806060016040528060258152602001613c2e602591398a33611ea9565b600e600081548092919061106d906135b1565b91905055507f9e9e101732de0887d722bd72c01c5439edc857c9c2c763953d67e66de12441d3338a600e546040516110a79392919061308c565b60405180910390a15050505050505050505b565b6000600560008473ffffffffffffffffffffffffffffffffffffffff1673ffffffffffffffffffffffffffffffffffffffff16815260200190815260200160002060008373ffffffffffffffffffffffffffffffffffffffff1673ffffffffffffffffffffffffffffffffffffffff16815260200190815260200160002060009054906101000a900460ff16905092915050565b6111e58160405160240161116391906130de565b6040516020818303038152906040527f41304fac000000000000000000000000000000000000000000000000000000007bffffffffffffffffffffffffffffffffffffffffffffffffffffffff19166020820180517bffffffffffffffffffffffffffffffffffffffffffffffffffffffff8381831617835250505050611f48565b50565b60006a636f6e736f6c652e6c6f679050600080835160208501845afa505050565b60007f80ac58cd000000000000000000000000000000000000000000000000000000007bffffffffffffffffffffffffffffffffffffffffffffffffffffffff1916827bffffffffffffffffffffffffffffffffffffffffffffffffffffffff191614806112d457507f5b5e139f000000000000000000000000000000000000000000000000000000007bffffffffffffffffffffffffffffffffffffffffffffffffffffffff1916827bffffffffffffffffffffffffffffffffffffffffffffffffffffffff1916145b806112e457506112e382611f62565b5b9050919050565b6112f481611fcc565b611333576040517f08c379a000000000000000000000000000000000000000000000000000000000815260040161132a9061328e565b60405180910390fd5b50565b600033905090565b816004600083815260200190815260200160002060006101000a81548173ffffffffffffffffffffffffffffffffffffffff021916908373ffffffffffffffffffffffffffffffffffffffff160217905550808273ffffffffffffffffffffffffffffffffffffffff166113b1836109f8565b73ffffffffffffffffffffffffffffffffffffffff167f8c5be1e5ebec7d5bd14f71427d1e84f3dd0314c0f7b2291e5b200ac8c7c3b92560405160405180910390a45050565b6060600060016114068461200d565b01905060008167ffffffffffffffff81111561144b577f4e487b7100000000000000000000000000000000000000000000000000000000600052604160045260246000fd5b6040519080825280601f01601f19166020018201604052801561147d5781602001600182028036833780820191505090505b509050600082602001820190505b600115611510578080600190039150507f3031323334353637383961626364656600000000000000000000000000000000600a86061a8153600a85816114fa577f4e487b7100000000000000000000000000000000000000000000000000000000600052601260045260246000fd5b049450600085141561150b57611510565b61148b565b819350505050919050565b60008160405160200161152e9190612e81565b6040516020818303038152906040528051906020012060001c9050919050565b60008061155a836109f8565b90508073ffffffffffffffffffffffffffffffffffffffff168473ffffffffffffffffffffffffffffffffffffffff16148061159c575061159b81856110bb565b5b806115da57508373ffffffffffffffffffffffffffffffffffffffff166115c2846104c0565b73ffffffffffffffffffffffffffffffffffffffff16145b91505092915050565b8273ffffffffffffffffffffffffffffffffffffffff16611603826109f8565b73ffffffffffffffffffffffffffffffffffffffff1614611659576040517f08c379a0000000000000000000000000000000000000000000000000000000008152600401611650906131ae565b60405180910390fd5b600073ffffffffffffffffffffffffffffffffffffffff168273ffffffffffffffffffffffffffffffffffffffff1614156116c9576040517f08c379a00000000000000000000000000000000000000000000000000000000081526004016116c0906131ee565b60405180910390fd5b6116d68383836001612244565b8273ffffffffffffffffffffffffffffffffffffffff166116f6826109f8565b73ffffffffffffffffffffffffffffffffffffffff161461174c576040517f08c379a0000000000000000000000000000000000000000000000000000000008152600401611743906131ae565b60405180910390fd5b6004600082815260200190815260200160002060006101000a81549073ffffffffffffffffffffffffffffffffffffffff02191690556001600360008573ffffffffffffffffffffffffffffffffffffffff1673ffffffffffffffffffffffffffffffffffffffff168152602001908152602001600020600082825403925050819055506001600360008473ffffffffffffffffffffffffffffffffffffffff1673ffffffffffffffffffffffffffffffffffffffff16815260200190815260200160002060008282540192505081905550816002600083815260200190815260200160002060006101000a81548173ffffffffffffffffffffffffffffffffffffffff021916908373ffffffffffffffffffffffffffffffffffffffff160217905550808273ffffffffffffffffffffffffffffffffffffffff168473ffffffffffffffffffffffffffffffffffffffff167fddf252ad1be2c89b69c2b068fc378daa952ba7f163c4a11628f55a4df523b3ef60405160405180910390a46118d8838383600161224a565b505050565b60006002600083815260200190815260200160002060009054906101000a900473ffffffffffffffffffffffffffffffffffffffff169050919050565b8173ffffffffffffffffffffffffffffffffffffffff168373ffffffffffffffffffffffffffffffffffffffff161415611989576040517f08c379a00000000000000000000000000000000000000000000000000000000081526004016119809061320e565b60405180910390fd5b80600560008573ffffffffffffffffffffffffffffffffffffffff1673ffffffffffffffffffffffffffffffffffffffff16815260200190815260200160002060008473ffffffffffffffffffffffffffffffffffffffff1673ffffffffffffffffffffffffffffffffffffffff16815260200190815260200160002060006101000a81548160ff0219169083151502179055508173ffffffffffffffffffffffffffffffffffffffff168373ffffffffffffffffffffffffffffffffffffffff167f17307eab39ab6107e8899845ad3d59bd9653f200f220920489ca2b5937696c3183604051611a7a91906130c3565b60405180910390a3505050565b611a928484846115e3565b611a9e84848484612250565b611add576040517f08c379a0000000000000000000000000000000000000000000000000000000008152600401611ad49061318e565b60405180910390fd5b50505050565b606060405180602001604052806000815250905090565b6060611b05826112eb565b6000611b0f611ae3565b90506000815111611b2f5760405180602001604052806000815250611b5a565b80611b39846113f7565b604051602001611b4a929190612e98565b6040516020818303038152906040525b915050919050565b611bfa8282604051602401611b78929190613100565b6040516020818303038152906040527fb60e72cc000000000000000000000000000000000000000000000000000000007bffffffffffffffffffffffffffffffffffffffffffffffffffffffff19166020820180517bffffffffffffffffffffffffffffffffffffffffffffffffffffffff8381831617835250505050611f48565b5050565b600081600001549050919050565b60606000825190506000811415611c355760405180602001604052806000815250915050611dc5565b60006003600283611c4691906133b7565b611c50919061340d565b6004611c5c919061343e565b90506000602082611c6d91906133b7565b67ffffffffffffffff811115611cac577f4e487b7100000000000000000000000000000000000000000000000000000000600052604160045260246000fd5b6040519080825280601f01601f191660200182016040528015611cde5781602001600182028036833780820191505090505b5090506000604051806060016040528060408152602001613c53604091399050600181016020830160005b86811015611d825760038101905062ffffff818a015116603f8160121c168401518060081b905060ff603f83600c1c1686015116810190508060081b905060ff603f8360061c1686015116810190508060081b905060ff603f831686015116810190508060e01b90508084526004840193505050611d09565b506003860660018114611d9c5760028114611dac57611db7565b613d3d60f01b6002830352611db7565b603d60f81b60018303525b508484525050819450505050505b919050565b611de48282604051806020016040528060008152506123e7565b5050565b611df182611fcc565b611e30576040517f08c379a0000000000000000000000000000000000000000000000000000000008152600401611e279061324e565b60405180910390fd5b80600660008481526020019081526020016000209080519060200190611e579291906126bd565b507ff8e1a15aba9398e019f0b49df1a4fde98ee17ae345cb5f6b5e2c27f5033e8ce782604051611e8791906132ee565b60405180910390a15050565b6001816000016000828254019250508190555050565b611f43838383604051602401611ec193929190613130565b6040516020818303038152906040527f1c7ec448000000000000000000000000000000000000000000000000000000007bffffffffffffffffffffffffffffffffffffffffffffffffffffffff19166020820180517bffffffffffffffffffffffffffffffffffffffffffffffffffffffff8381831617835250505050611f48565b505050565b611f5f81611f576111e8612442565b63ffffffff16565b50565b60007f01ffc9a7000000000000000000000000000000000000000000000000000000007bffffffffffffffffffffffffffffffffffffffffffffffffffffffff1916827bffffffffffffffffffffffffffffffffffffffffffffffffffffffff1916149050919050565b60008073ffffffffffffffffffffffffffffffffffffffff16611fee836118dd565b73ffffffffffffffffffffffffffffffffffffffff1614159050919050565b600080600090507a184f03e93ff9f4daa797ed6e38ed64bf6a1f0100000000000000008310612091577a184f03e93ff9f4daa797ed6e38ed64bf6a1f0100000000000000008381612087577f4e487b7100000000000000000000000000000000000000000000000000000000600052601260045260246000fd5b0492506040810190505b6d04ee2d6d415b85acef810000000083106120f4576d04ee2d6d415b85acef810000000083816120ea577f4e487b7100000000000000000000000000000000000000000000000000000000600052601260045260246000fd5b0492506020810190505b662386f26fc10000831061214957662386f26fc10000838161213f577f4e487b7100000000000000000000000000000000000000000000000000000000600052601260045260246000fd5b0492506010810190505b6305f5e1008310612198576305f5e100838161218e577f4e487b7100000000000000000000000000000000000000000000000000000000600052601260045260246000fd5b0492506008810190505b61271083106121e35761271083816121d9577f4e487b7100000000000000000000000000000000000000000000000000000000600052601260045260246000fd5b0492506004810190505b6064831061222c5760648381612222577f4e487b7100000000000000000000000000000000000000000000000000000000600052601260045260246000fd5b0492506002810190505b600a831061223b576001810190505b80915050919050565b50505050565b50505050565b60006122718473ffffffffffffffffffffffffffffffffffffffff1661244d565b156123da578373ffffffffffffffffffffffffffffffffffffffff1663150b7a0261229a611336565b8786866040518563ffffffff1660e01b81526004016122bc9493929190613040565b602060405180830381600087803b1580156122d657600080fd5b505af192505050801561230757506040513d601f19601f820116820180604052508101906123049190612a01565b60015b61238a573d8060008114612337576040519150601f19603f3d011682016040523d82523d6000602084013e61233c565b606091505b50600081511415612382576040517f08c379a00000000000000000000000000000000000000000000000000000000081526004016123799061318e565b60405180910390fd5b805181602001fd5b63150b7a0260e01b7bffffffffffffffffffffffffffffffffffffffffffffffffffffffff1916817bffffffffffffffffffffffffffffffffffffffffffffffffffffffff1916149150506123df565b600190505b949350505050565b6123f18383612470565b6123fe6000848484612250565b61243d576040517f08c379a00000000000000000000000000000000000000000000000000000000081526004016124349061318e565b60405180910390fd5b505050565b61268e819050919050565b6000808273ffffffffffffffffffffffffffffffffffffffff163b119050919050565b600073ffffffffffffffffffffffffffffffffffffffff168273ffffffffffffffffffffffffffffffffffffffff1614156124e0576040517f08c379a00000000000000000000000000000000000000000000000000000000081526004016124d79061326e565b60405180910390fd5b6124e981611fcc565b15612529576040517f08c379a0000000000000000000000000000000000000000000000000000000008152600401612520906131ce565b60405180910390fd5b612537600083836001612244565b61254081611fcc565b15612580576040517f08c379a0000000000000000000000000000000000000000000000000000000008152600401612577906131ce565b60405180910390fd5b6001600360008473ffffffffffffffffffffffffffffffffffffffff1673ffffffffffffffffffffffffffffffffffffffff16815260200190815260200160002060008282540192505081905550816002600083815260200190815260200160002060006101000a81548173ffffffffffffffffffffffffffffffffffffffff021916908373ffffffffffffffffffffffffffffffffffffffff160217905550808273ffffffffffffffffffffffffffffffffffffffff16600073ffffffffffffffffffffffffffffffffffffffff167fddf252ad1be2c89b69c2b068fc378daa952ba7f163c4a11628f55a4df523b3ef60405160405180910390a461268a60008383600161224a565b5050565b7f4e487b7100000000000000000000000000000000000000000000000000000000600052605160045260246000fd5b8280546126c99061354e565b90600052602060002090601f0160209004810192826126eb5760008555612732565b82601f1061270457805160ff1916838001178555612732565b82800160010185558215612732579182015b82811115612731578251825591602001919060010190612716565b5b50905061273f9190612743565b5090565b5b8082111561275c576000816000905550600101612744565b5090565b600061277361276e8461332e565b613309565b90508281526020810184848401111561278b57600080fd5b61279684828561350c565b509392505050565b6000813590506127ad81613bd1565b92915050565b6000813590506127c281613be8565b92915050565b6000813590506127d781613bff565b92915050565b6000815190506127ec81613bff565b92915050565b600082601f83011261280357600080fd5b8135612813848260208601612760565b91505092915050565b60008135905061282b81613c16565b92915050565b60006020828403121561284357600080fd5b60006128518482850161279e565b91505092915050565b6000806040838503121561286d57600080fd5b600061287b8582860161279e565b925050602061288c8582860161279e565b9150509250929050565b6000806000606084860312156128ab57600080fd5b60006128b98682870161279e565b93505060206128ca8682870161279e565b92505060406128db8682870161281c565b9150509250925092565b600080600080608085870312156128fb57600080fd5b60006129098782880161279e565b945050602061291a8782880161279e565b935050604061292b8782880161281c565b925050606085013567ffffffffffffffff81111561294857600080fd5b612954878288016127f2565b91505092959194509250565b6000806040838503121561297357600080fd5b60006129818582860161279e565b9250506020612992858286016127b3565b9150509250929050565b600080604083850312156129af57600080fd5b60006129bd8582860161279e565b92505060206129ce8582860161281c565b9150509250929050565b6000602082840312156129ea57600080fd5b60006129f8848285016127c8565b91505092915050565b600060208284031215612a1357600080fd5b6000612a21848285016127dd565b91505092915050565b600060208284031215612a3c57600080fd5b6000612a4a8482850161281c565b91505092915050565b612a5c81613498565b82525050565b612a6b816134aa565b82525050565b6000612a7c82613374565b612a86818561338a565b9350612a9681856020860161351b565b612a9f816136e7565b840191505092915050565b6000612ab58261337f565b612abf818561339b565b9350612acf81856020860161351b565b612ad8816136e7565b840191505092915050565b6000612aee8261337f565b612af881856133ac565b9350612b0881856020860161351b565b80840191505092915050565b60008154612b218161354e565b612b2b81866133ac565b94506001821660008114612b465760018114612b5757612b8a565b60ff19831686528186019350612b8a565b612b608561335f565b60005b83811015612b8257815481890152600182019150602081019050612b63565b838801955050505b50505092915050565b6000612ba0602d8361339b565b9150612bab826136f8565b604082019050919050565b6000612bc360328361339b565b9150612bce82613747565b604082019050919050565b6000612be660258361339b565b9150612bf182613796565b604082019050919050565b6000612c09601c8361339b565b9150612c14826137e5565b602082019050919050565b6000612c2c60248361339b565b9150612c378261380e565b604082019050919050565b6000612c4f60198361339b565b9150612c5a8261385d565b602082019050919050565b6000612c72600d836133ac565b9150612c7d82613886565b600d82019050919050565b6000612c956009836133ac565b9150612ca0826138af565b600982019050919050565b6000612cb860298361339b565b9150612cc3826138d8565b604082019050919050565b6000612cdb602e8361339b565b9150612ce682613927565b604082019050919050565b6000612cfe6002836133ac565b9150612d0982613976565b600282019050919050565b6000612d2160208361339b565b9150612d2c8261399f565b602082019050919050565b6000612d44600a836133ac565b9150612d4f826139c8565b600a82019050919050565b6000612d676008836133ac565b9150612d72826139f1565b600882019050919050565b6000612d8a60188361339b565b9150612d9582613a1a565b602082019050919050565b6000612dad60218361339b565b9150612db882613a43565b604082019050919050565b6000612dd0604d836133ac565b9150612ddb82613a92565b604d82019050919050565b6000612df3601d836133ac565b9150612dfe82613b07565b601d82019050919050565b6000612e16603d8361339b565b9150612e2182613b30565b604082019050919050565b6000612e396005836133ac565b9150612e4482613b7f565b600582019050919050565b6000612e5c600a836133ac565b9150612e6782613ba8565b600a82019050919050565b612e7b81613502565b82525050565b6000612e8d8284612ae3565b915081905092915050565b6000612ea48285612ae3565b9150612eb08284612ae3565b91508190509392505050565b6000612ec88286612ae3565b9150612ed48285612ae3565b9150612ee08284612ae3565b9150819050949350505050565b6000612ef98287612b14565b9150612f058286612ae3565b9150612f118285612b14565b9150612f1d8284612ae3565b9150612f2882612c65565b915081905095945050505050565b6000612f4182612c88565b9150612f4d8284612ae3565b915081905092915050565b6000612f6382612d37565b9150612f6f8285612ae3565b9150612f7a82612dc3565b9150612f868284612ae3565b9150612f9182612cf1565b91508190509392505050565b6000612fa882612d5a565b9150612fb48284612ae3565b915081905092915050565b6000612fca82612de6565b9150612fd68284612ae3565b915081905092915050565b6000612fec82612e2c565b9150612ff88284612ae3565b915081905092915050565b600061300e82612e4f565b915061301a8284612ae3565b915081905092915050565b600060208201905061303a6000830184612a53565b92915050565b60006080820190506130556000830187612a53565b6130626020830186612a53565b61306f6040830185612e72565b81810360608301526130818184612a71565b905095945050505050565b60006060820190506130a16000830186612a53565b6130ae6020830185612e72565b6130bb6040830184612e72565b949350505050565b60006020820190506130d86000830184612a62565b92915050565b600060208201905081810360008301526130f88184612aaa565b905092915050565b6000604082019050818103600083015261311a8185612aaa565b90506131296020830184612e72565b9392505050565b6000606082019050818103600083015261314a8186612aaa565b90506131596020830185612e72565b6131666040830184612a53565b949350505050565b6000602082019050818103600083015261318781612b93565b9050919050565b600060208201905081810360008301526131a781612bb6565b9050919050565b600060208201905081810360008301526131c781612bd9565b9050919050565b600060208201905081810360008301526131e781612bfc565b9050919050565b6000602082019050818103600083015261320781612c1f565b9050919050565b6000602082019050818103600083015261322781612c42565b9050919050565b6000602082019050818103600083015261324781612cab565b9050919050565b6000602082019050818103600083015261326781612cce565b9050919050565b6000602082019050818103600083015261328781612d14565b9050919050565b600060208201905081810360008301526132a781612d7d565b9050919050565b600060208201905081810360008301526132c781612da0565b9050919050565b600060208201905081810360008301526132e781612e09565b9050919050565b60006020820190506133036000830184612e72565b92915050565b6000613313613324565b905061331f8282613580565b919050565b6000604051905090565b600067ffffffffffffffff821115613349576133486136b8565b5b613352826136e7565b9050602081019050919050565b60008190508160005260206000209050919050565b600081519050919050565b600081519050919050565b600082825260208201905092915050565b600082825260208201905092915050565b600081905092915050565b60006133c282613502565b91506133cd83613502565b9250827fffffffffffffffffffffffffffffffffffffffffffffffffffffffffffffffff038211156134025761340161362b565b5b828201905092915050565b600061341882613502565b915061342383613502565b9250826134335761343261365a565b5b828204905092915050565b600061344982613502565b915061345483613502565b9250817fffffffffffffffffffffffffffffffffffffffffffffffffffffffffffffffff048311821515161561348d5761348c61362b565b5b828202905092915050565b60006134a3826134e2565b9050919050565b60008115159050919050565b60007fffffffff0000000000000000000000000000000000000000000000000000000082169050919050565b600073ffffffffffffffffffffffffffffffffffffffff82169050919050565b6000819050919050565b82818337600083830152505050565b60005b8381101561353957808201518184015260208101905061351e565b83811115613548576000848401525b50505050565b6000600282049050600182168061356657607f821691505b6020821081141561357a57613579613689565b5b50919050565b613589826136e7565b810181811067ffffffffffffffff821117156135a8576135a76136b8565b5b80604052505050565b60006135bc82613502565b91507fffffffffffffffffffffffffffffffffffffffffffffffffffffffffffffffff8214156135ef576135ee61362b565b5b600182019050919050565b600061360582613502565b915061361083613502565b9250826136205761361f61365a565b5b828206905092915050565b7f4e487b7100000000000000000000000000000000000000000000000000000000600052601160045260246000fd5b7f4e487b7100000000000000000000000000000000000000000000000000000000600052601260045260246000fd5b7f4e487b7100000000000000000000000000000000000000000000000000000000600052602260045260246000fd5b7f4e487b7100000000000000000000000000000000000000000000000000000000600052604160045260246000fd5b6000601f19601f8301169050919050565b7f4552433732313a2063616c6c6572206973206e6f7420746f6b656e206f776e6560008201527f72206f7220617070726f76656400000000000000000000000000000000000000602082015250565b7f4552433732313a207472616e7366657220746f206e6f6e20455243373231526560008201527f63656976657220696d706c656d656e7465720000000000000000000000000000602082015250565b7f4552433732313a207472616e736665722066726f6d20696e636f72726563742060008201527f6f776e6572000000000000000000000000000000000000000000000000000000602082015250565b7f4552433732313a20746f6b656e20616c7265616479206d696e74656400000000600082015250565b7f4552433732313a207472616e7366657220746f20746865207a65726f2061646460008201527f7265737300000000000000000000000000000000000000000000000000000000602082015250565b7f4552433732313a20617070726f766520746f2063616c6c657200000000000000600082015250565b7f3c2f746578743e3c2f7376673e00000000000000000000000000000000000000600082015250565b7f41444a4543544956450000000000000000000000000000000000000000000000600082015250565b7f4552433732313a2061646472657373207a65726f206973206e6f74206120766160008201527f6c6964206f776e65720000000000000000000000000000000000000000000000602082015250565b7f45524337323155524953746f726167653a2055524920736574206f66206e6f6e60008201527f6578697374656e7420746f6b656e000000000000000000000000000000000000602082015250565b7f227d000000000000000000000000000000000000000000000000000000000000600082015250565b7f4552433732313a206d696e7420746f20746865207a65726f2061646472657373600082015250565b7f7b226e616d65223a202200000000000000000000000000000000000000000000600082015250565b7f4352454154555245000000000000000000000000000000000000000000000000600082015250565b7f4552433732313a20696e76616c696420746f6b656e2049440000000000000000600082015250565b7f4552433732313a20617070726f76616c20746f2063757272656e74206f776e6560008201527f7200000000000000000000000000000000000000000000000000000000000000602082015250565b7f222c20226465736372697074696f6e223a202241206d7974686963616c20637260008201527f656174757265222c2022696d616765223a2022646174613a696d6167652f737660208201527f672b786d6c3b6261736536342c00000000000000000000000000000000000000604082015250565b7f646174613a6170706c69636174696f6e2f6a736f6e3b6261736536342c000000600082015250565b7f4552433732313a20617070726f76652063616c6c6572206973206e6f7420746f60008201527f6b656e206f776e6572206f7220617070726f76656420666f7220616c6c000000602082015250565b7f434f4c4f52000000000000000000000000000000000000000000000000000000600082015250565b7f4241434b47524f554e4400000000000000000000000000000000000000000000600082015250565b613bda81613498565b8114613be557600080fd5b50565b613bf1816134aa565b8114613bfc57600080fd5b50565b613c08816134b6565b8114613c1357600080fd5b50565b613c1f81613502565b8114613c2a57600080fd5b5056fe416e204e465420772f20494420257320686173206265656e206d696e74656420746f2025734142434445464748494a4b4c4d4e4f505152535455565758595a6162636465666768696a6b6c6d6e6f707172737475767778797a303132333435363738392b2f416c6c202564204e465473206861766520616c7265616479206265656e206d696e7465642ea26469706673582212208284fc887ce38d28482bbac661bc9088619dc27341f335a093e08f58ffd1a58f64736f6c6343000801003354686973206973206d79204e465420636f6e74726163742e204f68686868205965616868686868213c73766720786d6c6e733d27687474703a2f2f7777772e77332e6f72672f323030302f73766727207072657365727665417370656374526174696f3d27784d696e594d696e206d656574272076696577426f783d273020302033353020333530273e3c7374796c653e2e62617365207b2066696c6c3a2077686974653b20666f6e742d66616d696c793a2073657269663b20666f6e742d73697a653a20323470783b207d3c2f7374796c653e3c726563742077696474683d273130302527206865696768743d2731303025272066696c6c3d27272f3e3c7465787420783d273530252720793d273530252720636c6173733d27626173652720646f6d696e616e742d626173656c696e653d276d6964646c652720746578742d616e63686f723d276d6964646c65273e",
  "linkReferences": {},
  "deployedLinkReferences": {}
}